{
  "contractName": "Eloladder",
  "abi": [
    {
      "constant": true,
      "inputs": [],
      "name": "director",
      "outputs": [
        {
          "name": "",
          "type": "address"
        }
      ],
      "payable": false,
      "stateMutability": "view",
      "type": "function"
    },
    {
      "constant": true,
      "inputs": [
        {
          "name": "",
          "type": "address"
        }
      ],
      "name": "players",
      "outputs": [
        {
          "name": "score",
          "type": "uint256"
        },
        {
          "name": "name",
          "type": "bytes32"
        }
      ],
      "payable": false,
      "stateMutability": "view",
      "type": "function"
    },
    {
      "inputs": [],
      "payable": false,
      "stateMutability": "nonpayable",
      "type": "constructor"
    },
    {
      "constant": false,
      "inputs": [
        {
          "name": "player",
          "type": "address"
        },
        {
          "name": "name",
          "type": "bytes32"
        },
        {
          "name": "initialScore",
          "type": "uint256"
        }
      ],
      "name": "addPlayer",
      "outputs": [
        {
          "name": "",
          "type": "bytes32"
        }
      ],
      "payable": false,
      "stateMutability": "nonpayable",
      "type": "function"
    },
    {
      "constant": false,
      "inputs": [
        {
          "name": "winner",
          "type": "address"
        },
        {
          "name": "loser",
          "type": "address"
        }
      ],
      "name": "recordWin",
      "outputs": [],
      "payable": false,
      "stateMutability": "nonpayable",
      "type": "function"
    }
  ],
  "bytecode": "0x6080604052602060015534801561001557600080fd5b50336000806101000a81548173ffffffffffffffffffffffffffffffffffffffff021916908373ffffffffffffffffffffffffffffffffffffffff1602179055506105f3806100656000396000f300608060405260043610610062576000357c0100000000000000000000000000000000000000000000000000000000900463ffffffff1680635af82abf146100675780636e5c21d3146100be578063e2eb41ff14610135578063ff52faf11461019b575b600080fd5b34801561007357600080fd5b5061007c6101fe565b604051808273ffffffffffffffffffffffffffffffffffffffff1673ffffffffffffffffffffffffffffffffffffffff16815260200191505060405180910390f35b3480156100ca57600080fd5b50610117600480360381019080803573ffffffffffffffffffffffffffffffffffffffff169060200190929190803560001916906020019092919080359060200190929190505050610223565b60405180826000191660001916815260200191505060405180910390f35b34801561014157600080fd5b50610176600480360381019080803573ffffffffffffffffffffffffffffffffffffffff1690602001909291905050506103a5565b6040518083815260200182600019166000191681526020019250505060405180910390f35b3480156101a757600080fd5b506101fc600480360381019080803573ffffffffffffffffffffffffffffffffffffffff169060200190929190803573ffffffffffffffffffffffffffffffffffffffff1690602001909291905050506103c9565b005b6000809054906101000a900473ffffffffffffffffffffffffffffffffffffffff1681565b60008060009054906101000a900473ffffffffffffffffffffffffffffffffffffffff1673ffffffffffffffffffffffffffffffffffffffff163373ffffffffffffffffffffffffffffffffffffffff161415156102e9576040517f08c379a000000000000000000000000000000000000000000000000000000000815260040180806020018281038252601f8152602001807f4f6e6c79206469726563746f722063616e20616464206120706572736f6e2e0081525060200191505060405180910390fd5b81600260008673ffffffffffffffffffffffffffffffffffffffff1673ffffffffffffffffffffffffffffffffffffffff1681526020019081526020016000206000018190555082600260008673ffffffffffffffffffffffffffffffffffffffff1673ffffffffffffffffffffffffffffffffffffffff16815260200190815260200160002060010181600019169055507f706c61796572206164646564000000000000000000000000000000000000000090509392505050565b60026020528060005260406000206000915090508060000154908060010154905082565b60008061045a600260008673ffffffffffffffffffffffffffffffffffffffff1673ffffffffffffffffffffffffffffffffffffffff16815260200190815260200160002060000154600260008673ffffffffffffffffffffffffffffffffffffffff1673ffffffffffffffffffffffffffffffffffffffff16815260200190815260200160002060000154610588565b915061046a6001546001846105b7565b905080600260008673ffffffffffffffffffffffffffffffffffffffff1673ffffffffffffffffffffffffffffffffffffffff1681526020019081526020016000206000015401600260008673ffffffffffffffffffffffffffffffffffffffff1673ffffffffffffffffffffffffffffffffffffffff1681526020019081526020016000206000018190555080600260008573ffffffffffffffffffffffffffffffffffffffff1673ffffffffffffffffffffffffffffffffffffffff1681526020019081526020016000206000015403600260008573ffffffffffffffffffffffffffffffffffffffff1673ffffffffffffffffffffffffffffffffffffffff1681526020019081526020016000206000018190555050505050565b600061019082840360000381151561059c57fe5b04600a0a60010160018115156105ae57fe5b04905092915050565b60008183038402905093925050505600a165627a7a723058200e64d1e826765f5ce532054d5f040484992e93f145666bfcf37261f460544cc90029",
  "source": "pragma solidity ^0.4.0;\n\ncontract Eloladder {\n\n    // players...will be mapped to an address\n    struct Player {\n        uint score;\n        bytes32 name;\n    }\n\n    address public director;\n    uint K = 32;\n\n    mapping(address => Player) public players;\n\n    /// Create a new ladder.\n    constructor() public {\n        director = msg.sender;\n    }\n\n    function expectation(uint winner, uint loser) internal pure returns (uint) {\n        return 1/(1 + 10**(-(winner-loser)/400));\n    }\n\n    function adjustment(uint k, uint outcome, uint expected) internal pure returns (uint) {\n        return k*(outcome - expected);\n    }\n\n    function addPlayer(address player, bytes32 name, uint initialScore) public returns (bytes32) {\n        require(\n            msg.sender == director,\n            \"Only director can add a person.\"\n        );\n        players[player].score = initialScore;\n        players[player].name = name;\n        return \"player added\";\n    }\n\n    function recordWin(address winner, address loser) public {\n\n        uint expected = expectation(players[winner].score, players[loser].score);\n        uint adj = adjustment(K, 1, expected);\n        players[winner].score = players[winner].score + adj;\n        players[loser].score = players[loser].score - adj;\n\n    }\n}\n",
  "sourcePath": "/Users/dave/src/pool_tracker/test/contracts/Eloladder.sol",
  "compiler": {
    "name": "solc",
    "version": "0.4.24-develop.2018.8.28+commit.3ba0cdec.mod.Emscripten.clang"
  },
  "schemaVersion": "2.0.1",
  "updatedAt": "2018-10-19T00:39:18.911Z"
}